S0120000417672447269766572732E737265630A
S11300000C942A000C9434000C9434000C943400A6
S11300100C9434000C9434000C9434000C9434008C
S11300200C9434000C9434000C9434000C9434007C
S11300300C9434000C9434000C9434000C9434006C
S11300400C9434000C9434000C9434000C9434005C
S11300500C94340011241FBECFE5D8E0DEBFCDBF21
S11300600E9436000C94E0010C9400000E943E00B3
S1130070C0E08C2F0E949000CF5FFBCF61E08BE04B
S11300800E94CE0061E08CE00E94CE0061E08DE031
S11300900E94CE0061E08EE00E94CE0061E08FE01D
S11300A00E94CE0061E080E10E94CE0061E081E127
S11300B00E94CE0061E085E10E94CE0061E086E10D
S11300C00E94CE000895CF93C62F813019F082305C
S11300D051F012C061E085E10E94570160E086E1C1
S11300E00E94570111C060E085E10E94570161E060
S11300F086E10E94570108C060E085E10E94570133
S113010060E086E10E9457018BB38F708BBB8BB389
S113011090E1C99FB0011124682B6BBBCF91089566
S11301200F931F93CF93DF931DEC819F112D112407
S1130130012F069506950695000F902F990F990F9C
S1130140090F801B082F169516951695C0E0D0E070
S113015015C0602F81E00E9463008FE99FE0019742
S1130160F1F700C00000612F82E00E9463008FE974
S11301709FE00197F1F700C000002196C83CD1052B
S113018040F360E085E10E94570160E086E10E944F
S11301905701DF91CF911F910F9108959DEC899F95
S11301A0912D1124292F269526952695220F322F3D
S11301B0330F330F230F821B282F96959695969510
S11301C0662319F06130E1F108959230A9F018F432
S11301D0913031F008959330D9F0943029F1089595
S11301E03AB381E090E002C0880F991F2A95E2F7A4
S11301F0809583238ABB089537B381E090E002C0E1
S1130200880F991F2A95E2F78095832387BB089569
S113021034B381E090E002C0880F991F2A95E2F779
S11302208095832384BB089531B381E090E002C0BC
S1130230880F991F2A95E2F78095832381BB08953F
S11302409230A1F018F4913031F008959330C9F050
S1130250943011F108953AB381E090E002C0880F20
S1130260991F2A95E2F7832B8ABB089537B381E05F
S113027090E002C0880F991F2A95E2F7832B87BB71
S1130280089534B381E090E002C0880F991F2A9545
S1130290E2F7832B84BB089531B381E090E002C080
S11302A0880F991F2A95E2F7832B81BB08959DEC53
S11302B0899F912D1124292F269526952695220F65
S11302C0322F330F330F230F821B282F96959695C9
S11302D09695662319F06130E1F108959230A9F002
S11302E018F4913031F008959330D9F0943029F115
S11302F008953BB381E090E002C0880F991F2A95CE
S1130300E2F7809583238BBB089538B381E090E0B6
S113031002C0880F991F2A95E2F78095832388BB32
S1130320089535B381E090E002C0880F991F2A95A3
S1130330E2F78095832385BB089532B381E090E092
S113034002C0880F991F2A95E2F78095832382BB08
S113035008959230A1F018F4913031F0089593305B
S1130360C9F0943011F108953BB381E090E002C0EC
S1130370880F991F2A95E2F7832B8BBB089538B316
S113038081E090E002C0880F991F2A95E2F7832B41
S113039088BB089535B381E090E002C0880F991FAF
S11303A02A95E2F7832B85BB089532B381E090E070
S11303B002C0880F991F2A95E2F7832B82BB089508
S10703C0F894FFCFDB
S9030000FC
