S00B000044696F2E73726563FD
S11300000C942A000C9434000C9434000C943400A6
S11300100C9434000C9434000C9434000C9434008C
S11300200C9434000C9434000C9434000C9434007C
S11300300C9434000C9434000C9434000C9434006C
S11300400C9434000C9434000C9434000C9434005C
S11300500C94340011241FBECFE5D8E0DEBFCDBF21
S11300600E9436000C9457010C9400008BE20E940D
S11300703D008BE20E944100FCCF61E00E944500FC
S1130080089561E00E94CE0008959DEC899F912D12
S11300901124292F269526952695220F322F330FCA
S11300A0330F230F821B282F9695969596956623DA
S11300B019F06130E1F108959230A9F018F491300B
S11300C031F008959330D9F0943029F108953AB37A
S11300D081E090E002C0880F991F2A95E2F780958D
S11300E083238ABB089537B381E090E002C0880F70
S11300F0991F2A95E2F78095832387BB089534B32B
S113010081E090E002C0880F991F2A95E2F780955C
S1130110832384BB089531B381E090E002C0880F4B
S1130120991F2A95E2F78095832381BB0895923025
S1130130A1F018F4913031F008959330C9F094305F
S113014011F108953AB381E090E002C0880F991F3D
S11301502A95E2F7832B8ABB089537B381E090E0B8
S113016002C0880F991F2A95E2F7832B87BB089555
S113017034B381E090E002C0880F991F2A95E2F71A
S1130180832B84BB089531B381E090E002C0880FD3
S1130190991F2A95E2F7832B81BB08959DEC899FD3
S11301A0912D1124292F269526952695220F322F3D
S11301B0330F330F230F821B282F96959695969510
S11301C0662319F06130E1F108959230A9F018F432
S11301D0913031F008959330D9F0943029F1089595
S11301E03BB381E090E002C0880F991F2A95E2F7A3
S11301F0809583238BBB089538B381E090E002C0DF
S1130200880F991F2A95E2F78095832388BB089568
S113021035B381E090E002C0880F991F2A95E2F778
S11302208095832385BB089532B381E090E002C0BA
S1130230880F991F2A95E2F78095832382BB08953E
S11302409230A1F018F4913031F008959330C9F050
S1130250943011F108953BB381E090E002C0880F1F
S1130260991F2A95E2F7832B8BBB089538B381E05D
S113027090E002C0880F991F2A95E2F7832B88BB70
S1130280089535B381E090E002C0880F991F2A9544
S1130290E2F7832B85BB089532B381E090E002C07E
S11302A0880F991F2A95E2F7832B82BB0895F8944F
S10502B0FFCF7A
S9030000FC
