:100000000C942A000C9434000C9434000C943400AA
:100010000C9434000C9434000C9434000C94340090
:100020000C9434000C9434000C9434000C94340080
:100030000C9434000C9434000C9434000C94340070
:100040000C9434000C9434000C9434000C94340060
:100050000C94340011241FBECFE5D8E0DEBFCDBF25
:100060000E9436000C948B010C94000080E20E94E8
:100070006D008EE10E946D008FE10E946D0080E2B4
:100080000E9471002FEF81EE94E02150804090405B
:10009000E1F700C0000080E20E9475008EE10E943E
:1000A00071002FEF81EE94E0215080409040E1F705
:1000B00000C000008EE10E9475008FE10E94710077
:1000C0002FEF81EE94E0215080409040E1F700C096
:1000D00000008FE10E947500D2CF61E00E9479009C
:1000E000089561E00E940201089560E00E9402010B
:1000F00008959DEC899F912D1124292F26952695F1
:100100002695220F322F330F330F230F821B282FF8
:10011000969596959695662319F06130E1F10895CC
:100120009230A9F018F4913031F008959330D9F05D
:10013000943029F108953AB381E090E002C0880F2D
:10014000991F2A95E2F7809583238ABB089537B3D8
:1001500081E090E002C0880F991F2A95E2F7809510
:10016000832387BB089534B381E090E002C0880FF9
:10017000991F2A95E2F78095832384BB089531B3B4
:1001800081E090E002C0880F991F2A95E2F78095E0
:10019000832381BB08959230A1F018F4913031F09F
:1001A00008959330C9F0943011F108953AB381E085
:1001B00090E002C0880F991F2A95E2F7832B8ABB33
:1001C000089537B381E090E002C0880F991F2A9507
:1001D000E2F7832B87BB089534B381E090E002C03F
:1001E000880F991F2A95E2F7832B84BB089531B3BA
:1001F00081E090E002C0880F991F2A95E2F7832BD7
:1002000081BB08959DEC899F912D1124292F26955E
:1002100026952695220F322F330F330F230F821B83
:10022000282F969596959695662319F06130E1F101
:1002300008959230A9F018F4913031F00895933078
:10024000D9F0943029F108953BB381E090E002C0E9
:10025000880F991F2A95E2F7809583238BBB089519
:1002600038B381E090E002C0880F991F2A95E2F729
:100270008095832388BB089535B381E090E002C068
:10028000880F991F2A95E2F78095832385BB0895EF
:1002900032B381E090E002C0880F991F2A95E2F7FF
:1002A0008095832382BB08959230A1F018F4913099
:1002B00031F008959330C9F0943011F108953BB3B3
:1002C00081E090E002C0880F991F2A95E2F7832B06
:1002D0008BBB089538B381E090E002C0880F991F6E
:1002E0002A95E2F7832B88BB089535B381E090E02F
:1002F00002C0880F991F2A95E2F7832B85BB0895CA
:1003000032B381E090E002C0880F991F2A95E2F78E
:0A031000832B82BB0895F894FFCF01
:00000001FF
